:020000040800F2
:1000000090080020E94700083D4600083F460008E8
:1000100000000000000000000000000000000000E0
:100020000000000000000000000000004146000841
:10003000000000000000000043460008454600089C
:10004000BB1000085B110008D711000887140008D6
:10005000DB1400085B1800089F18000851460008D0
:10006000A31800081F260008C3450008CB45000858
:1000700093470008D74700081348000815480008B0
:1000800017480008194800081B4800081D480008C8
:100090001F48000821480008234800082548000898
:1000A00027480008294800082B4800085D4600083A
:1000B0002D4800082F48000867460008314800080E
:1000C000F0B5A5B004000D002A9E00BF73A003C8C0
:1000D0006F4603C7089506A83B214654002011909F
:1000E00004940392029313E0039C3500049F21784B
:1000F0000898B8470890002800D1B5E01198401C36
:100100001190641C6D1EF2D104970398801903901E
:1001100003980078252809D100260B960C960D9699
:100120000E960F9610960021039C0FE00021C94304
:100130006A46039800F0F6FF060001D1119895E099
:10014000D2D50126E1E7012008430100641C207894
:100150002028F8D023280CD02B2804D02D2804D018
:1001600030280AD084E00220EEE70A00042111437F
:10017000ECE7080008210143E8E708001021FAE74E
:1001800013960AE0139A444B9A4205DA93009A18A0
:100190005200101830381390641C20780200303A56
:1001A0000A2AEFD320782E2803D00020C0431290D3
:1001B00027E0641C22782A2A0AD102980068029A51
:1001C00010600268001D029B18601292641C18E007
:1001D0002D2A01D1641C00E0002212960CE0002AB6
:1001E00009D1129B2C4DAB4205DA9D00EB185B0048
:1001F000181830381290641C20780300303B0A2B0A
:10020000EDD306AD2987277826A0390000F09AFFA4
:10021000002801D0641C00E000273A202F54285CFD
:10022000682804D12178682901D1622005E06C2872
:1002300006D120786C2803D171203A216854641CBF
:1002400016A80A902378029A06A9049800F068F884
:10025000611C0391002807D116AA06A9049800F092
:10026000F9F9002800D453E70020C04325B0F0BDC1
:100270002A2885D10298026802601068121D029B2C
:100280001A601390002804D5424213920A000421F8
:100290001143641C86E70000CBCCCC0C00000000AE
:1002A00000000000686A6C747A4C00000B00622841
:1002B0001CD068280DD06A2803D06C2823D0712860
:1002C00021D11A68D21D072082431A6003CA1A601E
:1002D0007047002A19681960086803D0091D196061
:1002E00000B217E0091D196080B217E0002A1968F2
:1002F0001960086803D0091D196040B20AE0091DA1
:100300001960C0B20AE0002A19681960086803D0B1
:10031000091D1960C1177047091D19600021704738
:100320007CB50C0011001E0025693200253A00D171
:100330004AE11C3A00D182E0121F022A00D87EE076
:100340000E3A00D104E1521F58D0093A77D0921EDC
:1003500016D0521E34D0521E022A70D9121F2FD02E
:10036000521F00D194E0521E48D0521E00D1DEE050
:10037000D21E00D1FAE0921E40D0D21E3ED029E11A
:100380003A22A25C6C2A09D06069421C62610A6848
:100390000A601368121D0A602B5425E10A680A607E
:1003A0001368121D0A60009300210191C943216363
:1003B0006A46210000F0D0F9002800D414E100E1E1
:1003C00001223A20205CFFF771FF03C4083C00299A
:1003D00004DA6069411C61612D210DE0208F8107E5
:1003E00004D56069411C61612B2105E0C00721D55E
:1003F0006069411C6161202129541BE000223A20E0
:10040000205CFFF753FF03C4083C3820205C000742
:1004100010D503CC083C002901D100280AD02020A7
:100420003043782806D1606930212954401C411C92
:1004300061612E5460692818E060310084E008682A
:10044000C01D0722904308600CC808600CC4083C1B
:1004500003CC083CC80F04D06069411C61612D21A8
:100460000DE0208F810704D56069411C61612B215B
:1004700005E0C00704D56069411C61612021295451
:1004800060692818E0603100200000F081FAABE0DC
:100490003B20205C002803D00024E44353A074E0F8
:1004A0003A20205C622808D0682823D06A2812D01D
:1004B0006C282ED071280ED02BE00A680A601068D4
:1004C000121D0A60002803D10024E4434DA05CE023
:1004D000E16A017088E0086808600268001D086031
:1004E000002A03D10024E44346A04EE0E06AC1178D
:1004F00003C279E00A680A601068121D0A600028C9
:1005000004D10024E44300BF3EA03EE0E16A018044
:100510006AE00A680A601068121D0A60002803D1A8
:100520000024E44337A030E0E16A01605CE0086841
:1005300008600268001D08600020C04300211040D0
:1005400003C4083CE5607821200000F069F94BE025
:100550006C223A23E2540B680B601A681B1D0B6077
:10056000002A29D10024E4432CA00EE03A22A25C08
:100570006C2AF0D0086808600568001D0860E56016
:10058000002D06D10024E4432BA000F0E7FD201A43
:1005900076BD266B002E03D5280000F003FE09E08F
:1005A00032000021280000F005FE002801D0401B89
:1005B00000E03000A06117E0210000F0CDF8002835
:1005C00012D50020C04376BD6069411C61612521C0
:1005D000295409E06169481C606125226A54310090
:1005E00002D0411C61612E54002076BD7072696E8C
:1005F00074665F733A20256E20646973616C6C6F5A
:10060000776564007072696E74663A206261642076
:10061000256E20617267756D656E74007072696E0B
:1006200074665F733A2062616420256C7320617286
:1006300067756D656E7400007072696E74665F73C5
:100640003A2062616420257320617267756D656E62
:1006500074000000F8B506000C001700606B6169BB
:10066000401A216A401AA169401A616A401AE16978
:10067000401AA16A401A00903820205C40070ED42E
:10068000009800280BDD05462021A068B047A06037
:1006900000285DD0E06A401CE0626D1EF4D13A0093
:1006A00063692100300000F0EDFC002850D1256A7C
:1006B000002D0ADD3021A068B047A060002847D097
:1006C000E06A401CE0626D1EF4D1A369E26821007B
:1006D000300000F0D7FC00283AD1656A002D0ADD11
:1006E0003021A068B047A060002831D0E06A401CEB
:1006F000E0626D1EF4D1E369E068A169421821004F
:10070000300000F0BFFC002822D1A56A002D0ADDD0
:100710003021A068B047A060002819D0E06A401CD2
:10072000E0626D1EF4D13820205C40070ED50098A1
:1007300000280BDD05462021A068B047A0600028F6
:1007400006D0E06A401CE0626D1EF4D10020F2BDCC
:100750000020C043F2BD0000F8B5A6B004000D00B3
:1007600016002F6B002F00D5864F00F02FFD696B10
:100770000A1800BF28A003C803AB03C3812A47D2CD
:100780000020059400950290002F30DD03AA316807
:1007900001A800F0CCFC05003AD43068002801D153
:1007A0006D1E35D4AF4222DB009840694019812884
:1007B0000CD300240098446306AA00990598FFF71B
:1007C00049FF0290002812D40098446100984469BF
:1007D00006A82A0001A9001900F0FEFC6019009982
:1007E00048613068002802D0361D7F1BCCE7059B8E
:1007F000009C0298002804D106AA21001800FFF7E7
:1008000029FF002802D100216161616327B0F0BD9A
:100810000020C043FAE700000000000000000000D4
:10082000F2B586B0040025690A466F2A01D108276F
:1008300007E0084620210143782901D00A2700E07B
:1008400010273C2603CC083C04AB03C3642A01D028
:10085000692A09D1002907DA04A803C80022002365
:10086000121A8B4104A80CC004A803C8002920D187
:1008700000281ED1206B00281BD1082F4ED1382014
:10088000205C00074AD53B26302046E000290ED5E3
:100890003821615C14220A40102A08D1616B626918
:1008A000891A226A891A081A002800DD206207B016
:1008B000F0BD0294009504A830C8761E0196200071
:1008C00029003A00FB1700F0B5FC3032D0B23A28CC
:1008D00003DB6846007E51381218009882552000CC
:1008E00029003A00FB1700F0A5FC04000D0001D11F
:1008F000002C05D00298C068009989198842DCD381
:10090000029C009D082F09D13820205C000705D5E6
:10091000A85D302802D0761E3020A8553C20801BD0
:10092000A061A919E160216B8842AFDA081A206240
:10093000208F154901402187B9E7F8B50026134FEC
:1009400004000D00009216E001200099084007D035
:1009500032003B002000290000F0A1FC04000D0043
:100960000098401000903000390032003B0000F049
:1009700096FC06000F0000980028E5D12000290011
:10098000F4BD0000FFFFFF7FEFFF000000002440E8
:10099000F3B593B005AA03C802AB03C314A800784B
:1009A00020210143019161290BD01398006B00288D
:1009B00001D5062003E004D1672902D10120139953
:1009C0000863139803C84C006415641C13D10B030F
:1009D00011D003201399886114A8007861381A286F
:1009E00004D255497944FF31513116E053497944D5
:1009F000FF314B3111E04C006415641C13D10B0323
:100A000011D103201399886114A8007861381A283D
:100A10001BD34B497944FF31293103221398C06815
:100A200000F0DAFBC9E110AB03C391A6C0CE10A859
:100A300003C8394080256D03A9420BD200230093DF
:100A400010AB30CB604069400EE03E497944FF3145
:100A50000B39E2E7080D884C2418009410A803C84D
:100A6000874D0D4085492943139B03C30198612895
:100A700013D11398C06830210170811C139BD96079
:100A800014A90978612901D1782100E05821417029
:100A900013984069801C13994861139830C8264008
:100AA0002F4005D1002E03D100206B4698807BE1BA
:100AB0000198612800D0A9E01398006B002801D5A7
:100AC000212000E0401C0190019F7F1C02A803C868
:100AD0000022002300F0A5FC02D280200006454041
:100AE0000098001F009069460A7505A8461C002F53
:100AF00000DC68E120002900002280235B0300F075
:100B0000A9FC00D95FE169004A0D11001C31002ADF
:100B10001AD0002918DDB74A914206DB10052900DA
:100B2000802212061140014312E0554A2A4008056E
:100B3000104305000EE000BFA03C0000A03C0000F8
:100B4000A43C00009C3C00002900802212061140B9
:100B500000240D002000290000F096FC0290FF1FE9
:100B6000002F09DD00F0CAFC02000B002000290064
:100B700000F02BFD04000D00F01D0721029A04E097
:100B8000401E0F23134003701211002A01DD491E7D
:100B9000F6D5491E00D512E1401E00220270F8E78A
:100BA0000023040005AD2D1901E0401E6D1E641EDA
:100BB0002E789E42F9D00F2B04D14B1C1B5D5B1C81
:100BC000491C0B55002C04D505AA401C0099091D91
:100BD0000091431E11D4D41814A909782578303512
:100BE000EEB2392E02DD0E003A3EAD1925705B1EC5
:100BF000641E002BF2D514AB19701399096B0029F0
:100C000000D4CEE0411E139B1963CAE002A803C8BA
:100C10000022002300F005FC06D202A803C88022AF
:100C20001206514002AA03C200987349484373490F
:100C300000F058FD009007200099401A049005DD4F
:100C4000024602A803C8FFF778FE0AE042420020ED
:100C50006B49FFF772FE02000B0002A803C800F008
:100C60009BFD019A662A0DD1009A0A320BE000BF63
:100C7000FFFFFFFFFFFFFF7F02FCFFFF0000E03FE1
:100C8000FFFF0F800622139B1B6B9A18142A00DDAE
:100C9000142230236C46237505AB5C1C02E002A8CD
:100CA00003C8049A002A3CDD02AB03C3049202A8E5
:100CB00003C800F0FBFB0F90064608340425300003
:100CC0000A2100F012FD0F0030000A2100F0C6FDDD
:100CD00006003037601E077030000A2100F005FD65
:100CE0000F0030000A2100F0B9FD0600A41E3037C5
:100CF00027706D1EE3D1083404980838049000284A
:100D0000CDDD0F9800F0EAFB02000B0002A803C83B
:100D100000F05BFC00223B4B00F0C1FA02AA03C2C8
:100D2000C5E705A8401C211A05A8421C009802E04E
:100D3000491E401E521C1378302BF9D000900198A8
:100D4000662802D10098401C05E00198652801D171
:100D5000012000E00020139B1B6B1818814200DA71
:100D6000481E00281DD4884204DA115C352901DBB5
:100D7000392300E030230400511E0D1901E0401E0C
:100D80006D1E641E2E789E42F9D0392B02D1135D60
:100D90005B1C1355002C04D50A00401C0099491C0B
:100DA000009169468880009800B20090019B1BB2B8
:100DB00014A80178139800F027F815B0F0BDC61DEF
:100DC000002F00DD96E605A9481C331A05A8421C31
:100DD0000198834200DC1800002800D50DE79842F6
:100DE00000DBDDE64B1C1B5C072B00DCD8E60F2389
:100DF000D7E60000FF07000097750000A0860100FD
:100E00000000F03F84D79741F6B583B006000F008D
:100E10001C0000F091F96946406A00780870356B53
:100E2000002C03DC012400BFA3A004902020384341
:100E3000662803D10A9F3FB27F1C1AE0672800D0C2
:100E400085E00A9800B20321C943884200DA82E0B3
:100E5000A84200DB7FE00A9F3FB27F1C3820305C55
:100E6000000702D4AC4200DA250038B22D1A00D5B2
:100E70000025B169F06840183AB2002A26DC491C06
:100E800030220270002D03DC3820305C000704D5CE
:100E900068460078F2685054491CB16138B241424A
:100EA0008D4200DA6F423FB278427062ED19A5427E
:100EB00000DA2C0024B2F46122000499F068B369CE
:100EC000C01800F089F9281BB062C3E0944218DA18
:100ED0002200049900F080F9B0690019B0613FB2B6
:100EE000391B7162002D03DC3821715C090706D5BE
:100EF00069460978F2681154F069401CF061B562E6
:100F0000A8E0049900F068F938B2B1690918E41B47
:100F1000002D03DC3822B25C120704D56A46127831
:100F2000F3685A54491CB16121B28D4200DA2C0099
:100F300022B204990918F068B369C01800F04CF99E
:100F400024B2B0690019B061281B706282E0612F81
:100F500011D1702712E0AC4204DA3821715C090724
:100F600000D425006D1E00D50025672F01D165270F
:100F700004E0452702E0412F00D15027B069411C11
:100F8000B161049A1278F3681A540498401C0490D2
:100F9000002D03DC3820305C000718D5481CB061F8
:100FA0006A461278F3685A54002D10DD641E21B28F
:100FB0008D4200DA2C0022B20499F368181800F070
:100FC0000BF924B2B0690019B061281B7062F06897
:100FD000B169401807700A9909B2002904D42B217D
:100FE0004170801C049006E02D224270801C049009
:100FF00048426946088500246D460A9800B205E01B
:101000000A2100F06FFB2970641C6D1C00B20028DF
:10101000F6DC012C09DC20203843652805D130207E
:10102000049908700498401C0490002C28D13020AA
:10103000049908700498401C07E0641E6946095D25
:1010400030310170401C002CF7DCF168B26989185E
:10105000401AF0613820305C1421014010290DD174
:101060007069B1694018716A4018F1694018B16A35
:101070004018716B884201DA081A306205B0F0BD81
:101080000498E0E7F8B507000020002B12D00E000E
:1010900014001D002178B068B847B060002807D060
:1010A000F06A401CF0620020641C6D1E02D0F1E763
:1010B0000020C043F2BD00003000FEE71F4870472B
:1010C00030B45368D418042B0BDA002909D0057802
:1010D00025700578002D04D05B1C491E641C401C43
:1010E000F1E7536030BC704738B500290ED01D00C1
:1010F0001400FFF7E5FF616820006A6B904701224A
:10110000D243811A02D0491E02D004E0012000E03F
:101110000020C04332BD0021616032BD80B5DA6B72
:10112000904702BD80B5054BFFF7DEFF02BD80B5DD
:10113000024BFFF7F3FF02BD014870478C0000200F
:101140005400002000BFC9B200E0401C02788A426F
:1011500002D0002AF9D100207047FEE780B50028B0
:1011600001D100BF07A006490B68002B03D0222243
:101170000021984701E000F08CFB222002BD000016
:101180008C040020636F6E73747261696E742068E2
:10119000616E646C65723A20626164206D65737380
:1011A00061676500010000E0491C0A78002AFBD154
:1011B000081A7047C9B201E0401C521E002A03D031
:1011C00003788B42F8D170470020704780B5FFF755
:1011D00075FF006C02BDFEE7124207D08B0706D0F8
:1011E0000B78491C0370401C521EF7D870478307C8
:1011F00006D00B78491C0370401C521EF9D1704771
:1012000070B4103A03D378C9103A78C0FBD25307B0
:1012100001D318C918C001D508C908C0D20704D322
:101220000B880380891C801C002A01D50B78037071
:1012300070BC7047124224D0994228D970B500255D
:101240001B4202D00C00002109E0002401264918AD
:101250006441944200D3A41A7641F8D331000126A8
:1012600001E0764109D2001864416D41A41A9D4104
:10127000F7D2A4185D41B619F5D3300022002B0037
:1012800070BD1B42D8D108B500F008FB08BD01D1E4
:101290009042D3D202000B00002100207047F0B52D
:1012A0000E005E400125ED072E40B446AE0ADF1861
:1012B0004C18F44208D2F7420ED2640D01D07F0DD3
:1012C00012D100206146F0BD05D1F74201D87F0D53
:1012D00005D10020C143F0BDFBD1640DF9D0002041
:1012E000C143490549088FE0E419C902DB022943DB
:1012F0002B43DB0A460DC00231438E4630B487B221
:1013000095B27D432E0CADB2140C7C43A419260C6F
:10131000240425439CB27C43A419190C7943270C5F
:10132000C919A4B20F043C43090C000C97B24743FF
:101330002E0CBE193543ADB2170C4743360CBF19FE
:10134000A6B2BF193E043543240C3E0C36199FB299
:101350004743BF19BCB23E0C89191F0C47437F1885
:101360003E043443390C704680B297B247432E0C8A
:10137000BE193543ADB2170C4743360CBF19A6B2A0
:10138000BF193E043543240C3E0C36199FB2474327
:10139000BF19BCB23E0C89191F0C47437F183E048D
:1013A0003443390C77463F0C90B278432E0C8019A9
:1013B0000604ADB22E43050CA0B22D18120C7A43D0
:1013C0005019020C80B2240CA4189AB27A43121954
:1013D00014042043120C89181B0C7B43C91830BC21
:1013E000EF0A394203D1B61940414941641E6F12D8
:1013F000BF0DE41B0BDBFF19BC4211DA24050027EB
:101400004208AE417841614166463143F0BD641CFB
:1014100005D1401C6141CF0201D34908F4E750E7F0
:101420005DE730B4012464054D00EC420BD85D004B
:10143000EC4208D80C001C4364000443144304D25B
:10144000994200D1904230BC7047FCD08B42FAD117
:101450008242F8E730B4012464054D00EC420BD819
:101460005D00EC4208D80C001C43640004431443A4
:1014700004D28B4200D1824230BC7047FCD09942EA
:10148000FAD19042F8E7FEE7F4464A1805D200F098
:101490000FF801D580174008604700F009F80121D6
:1014A000C907884200D90800404260474A1812D252
:1014B000400DC90208430121C9070843520D4021CC
:1014C0000901521A521C06D452421F3201D4D04094
:1014D0007047C017704700207047FEE701004222A6
:1014E0001201D21E004207D002D4521E0018FCD5B1
:1014F000C10A400512058918704700000100EED5A9
:101500004042F446FFF7EBFF0122D2071143604748
:101510008B4200D1824205D98446100062468C4637
:1015200019006346DF184C18640D7F0D3AD0661C15
:10153000760537D0E61B352E34DCDB022B43DB0A85
:101540000C0DC9022943C912202E0DDB1700203EC5
:1015500006D01F00F741F3405F400026012A774183
:10156000C01871410DD217E01700F741F240574003
:10157000F3415A40B340F3405A4000268018594185
:101580000AD3A21C52050FD0C207012F72411700C7
:101590004008CB0718434908641C24054208AF41A2
:1015A00070416141F0BC7047641C21050020F9E7DF
:1015B0006B4010E06B40ABE7F742F3D1E943F1E752
:1015C0002442EFD100200021ECE7F0B40125ED0723
:1015D0000F005F40EED40C00871A9C4105D2C01B5F
:1015E000A141D219634169406B40AE0ADF184C1823
:1015F000F442E1D2640D7F0DE2D0E61B362ED1DC41
:10160000DB022B43DB0AA4460C0DC9022943C90A9D
:10161000012E28DC04D1D6075208DF073A435B08C5
:10162000EF0A76429041994114D039423BD1B61924
:1016300040414941761C394204D1761C0018494189
:101640003942FAD0B9436746B74208D9A41B2405EA
:101650002143A7E70042EAD13642E8D1A2E7E40AF3
:10166000E10700209EE7202E0BDD203E1F00F34007
:10167000F7415F40012A002257417E429841914143
:101680000BE01700F741F2405740F3415A40B34096
:10169000F3405A407E42904199410A0303D2641EAE
:1016A000B619404149410027641E24054208AE4155
:1016B00078416141F0BC7047F446002804D44942A7
:1016C00000F013F8404260474042002905D45FD043
:1016D00000F00BF8404249426047494200F005F8EB
:1016E0004942604703460B43E6D40022030A8B427B
:1016F0000BD203098B4219D243088B422ED2411AD6
:1017000000D20146524110467047FF2209023FD0E5
:1017100012068B4205D3121209028B4201D3121218
:10172000090203098B4219D300E0090AC3098B425D
:1017300001D3CB01C01A524183098B4201D38B01E3
:10174000C01A524143098B4201D34B01C01A524186
:1017500003098B4201D30B01C01A5241C3088B42CB
:1017600001D3CB00C01A524183088B4201D38B00B6
:10177000C01A524143088B4201D34B00C01A524158
:10178000884200D3401A5241CFD2014610467047DA
:1017900008B500F085F808BDF0B40E005E400125E4
:1017A000ED072E40B446AE0ADF184C18F4423BD287
:1017B000F74241D2640D43D07F0D38D0E41BC902FB
:1017C000DB0229432B43CF0ADB0A0600B61A9F41EE
:1017D00004D2641EB6197F41B6185F416812800DAD
:1017E00024180018844222DAE80C0021B6197F413F
:1017F000B61A9F4102D2B6185F413F1C4041494191
:10180000F4D3241C21DD2405B6197F41B61A9F416B
:1018100005D33743C60737430026012F7041614186
:1018200066463143F0BC7047FCD1F74205D2002038
:10183000C14349054908F3E704D00020C143F1E75B
:101840007F0DFAD000206146ECE72442FAD1401C1B
:1018500061410F03F6D30020E2E7FEE7094214D00E
:1018600088420FD30122030C01D10004120400238B
:1018700000185B418B4200D35B1A5241F8D3190028
:101880001000704701000020704708B500F008F80C
:1018900008BD80B5012000F005F801BD7047FEE7E6
:1018A0007047FEE780B500BF00BF024A1100182054
:1018B000ABBEFBE726000200F8B5040001D1012011
:1018C000F2BD0025A5625C304078002804D15C217F
:1018D0006554200000F054FC20005C30022343706B
:1018E00021680A684026B2430A60E1680091E02658
:1018F000F600B14206D90021009AF0273F01BA4212
:1019000004D104E0D902009AB24200D0A5620122BB
:10191000276B002F05D1009FB74201D9236300E058
:1019200022636368A6681E432769374363693B43A4
:10193000A66957023E401E43E3693343266A1E43AD
:10194000A36A334326683360A3691B0C0426334023
:10195000666A1E43636B3343E6681E433143236864
:1019600059602168CB696D4C1C40CC614560427068
:101970000020F2BDFCB583B004000F00150000206C
:101980006946087020004430007E012801D1022001
:10199000C1E0260044360120307600F03DFC0221F3
:1019A0000191717E012901D00220AAE03E0000D001
:1019B000290000D1A4E02100443103224A7600220C
:1019C000CA61A663A587E58722640A804A80CA6047
:1019D0008A60A16880221202914205D121680A68BA
:1019E0008023DB0113430B60216840220B68134006
:1019F00002D10B681A430A60049D61680022D24339
:101A00000292E268A84B9A4227D3002902D0E18FC4
:101A1000012906D131882268D160B61CE18F491EA8
:101A2000E187070005E03188C160B61CE08F401EE9
:101A3000E087E08F002849D020688168019A0A4039
:101A4000F1D1002D07D002988542F2D000F0E4FBDE
:101A5000C01BA842EDD3032053E0002902D0E18F40
:101A6000012909D12168E28F022A07D33288CA608E
:101A7000B61CE18F891EE18707000BE032780A73FC
:101A8000761CE18F491EF6E73188C160B61CE08FF5
:101A9000801EE087E08F002818D020688168019AB6
:101AA0000A4008D0E18F0229EED231780173761C0A
:101AB000E08F401EEDE7002DCDD002988542E9D0A1
:101AC00000F0AAFBC01BA842E4D3C4E729003A00F7
:101AD000200000F008FB002803D020202100443122
:101AE000C861A068002806D101902068C1680191F2
:101AF00080680190019820004430C069002802D01D
:101B000001206946087020004430012141760021FF
:101B100001766846007805B0F0BD0000FFF7FFFFD2
:101B2000FAB583B00400170000206946087025004C
:101B30004435042660688221490088420CD1A0689F
:101B4000002809D16E76049800903B00039A114654
:101B5000200000F0ADF8A5E0287E012801D1022088
:101B6000A0E001200190287600F056FB697E012953
:101B700001D002208CE00399002901D0390001D165
:101B8000019885E0210044314E760022CA61039B12
:101B900023640F804F80A263A287E2878A60CA60B5
:101BA00022684149E3688B42536802D3694D1D4066
:101BB00001E0B5021D435560A26873039A4204D147
:101BC00022681368394D1D4015602268402315684E
:101BD0001D4002D115682B4313600022D2430292AC
:101BE000120C6B465A80E2688A42039E049D3CD2E6
:101BF000070007E0097B3170761C41886A465288ED
:101C00008918418020004430418800292FD0216864
:101C10008A68019B1340EDD1002D07D002988542C0
:101C2000F0D000F0F9FAC01BA842EBD303202FE05C
:101C3000C9683180B61C41886A465288891841803B
:101C4000200044304188002911D021688A68019B16
:101C50001340EDD1002DE9D002988542F0D000F07C
:101C6000DBFAC01BA842EBD3E0E70700E8E7290056
:101C70003A00200000F0FBF9002803D020202100CA
:101C80004431C86120004430C069002802D00120DE
:101C90006946087020004430012141760021017618
:101CA0006846007805B0F0BD01070000FFBFFFFFE8
:101CB000F3B585B0070014001E0001200490002039
:101CC000694608703D004435287E012801D1022074
:101CD00027E10120287600F09FFA0290687E012813
:101CE0000BD0796882225200914204D1B968002950
:101CF00001D1042801D0022009E10698002803D070
:101D00000394002C00D0310000D1FFE0697E04294B
:101D100001D0052169763900443101910021E96142
:101D2000039A3A64019A5680019A1680B863FE8736
:101D3000BE87019A9160019AD1607B4AF96891420D
:101D400003D201994988022906D339684B68014CAE
:101D50001C4006E0FFEFFFFF39684B6880246401F8
:101D60001C434C60396840230C681C4002D10C684D
:101D700023430B600C997B68FC68944247D3002B8B
:101D800002D0FA8F012A06D102883B68DA60801CF3
:101D9000FA8F521EFA870600039C0C91049DF88F5F
:101DA000002804D101984088002800D19EE0002D31
:101DB0000DD0F88F00280AD038688168890706D5C9
:101DC0003188C160B61CF88F401EF8870025019845
:101DD000408800280DD0396801208A68024008D068
:101DE000C9682180A41C01994988491E019A518023
:101DF00001250C980021C9438842D0D000F00CFA8C
:101E00000299401A0C998842C9D303207FE0002B25
:101E100002D0FA8F012A09D13A68FB8F022B0AD32C
:101E20000388D360801CFA8F921EFA870400039DFA
:101E30000C91049E40E003781373401CFA8F521EED
:101E4000F3E722780A73641CF98F0918F9870026D2
:101E500001994988002923D03A68012193680B40F1
:101E60001ED0019B5B88022B11D3D0682880AD1C4B
:101E700001984088801E019A50800198408802286D
:101E80000DD2386842680B031343436007E0127BAE
:101E90002A706D1C019A52881018019A50800126F0
:101EA0000C980021C943884206D000F0B5F9029988
:101EB000401A0C998842A8D2F88F002803D10198C3
:101EC0004088002812D01948002EC1D0F98F00296F
:101ED000BED039688A689207BAD5FA8F022AB0D381
:101EE0002288CA60A41CF98F891EAFE70C99029A58
:101EF000380000F0F8F8002803D0202039004431E1
:101F0000C86138004430C069002802D00120694609
:101F1000087038004430012141760021017668467E
:101F2000007807B0F0BD000001070000FFFF0000CF
:101F3000FEB51F00089B00240125060000910192B8
:101F4000089330688068009901400098814201D16F
:101F5000012000E000200199884234D00020C043D5
:101F60008742EED0002F05D000F056F90899401AAC
:101F7000B842E6D330684168E0229143416070681E
:101F80008221490088420BD1B068E903884202D01F
:101F90004909884204D130680168402291430160B8
:101FA0006803B16A814208D131680A68614B134005
:101FB0000B6031680A681043086030005C3045707F
:101FC00004700320FEBD0020FEBDF8B50F00069989
:101FD000040015001E000691206881683940A9425E
:101FE00043D0C021C9008F4206D1002D04D1007B0F
:101FF00069460870684600780020C0438642EBD0EE
:10200000002E05D000F008F90699401AB042E3D33B
:1020100020684168E0229143416060688221490064
:1020200088420CD1A06880210902884202D0490967
:10203000884204D1206801684022914301608020D9
:102040008001A16A814208D121680A68394B134096
:102050000B6021680A681043086020005C30012191
:102060004170002101700320F2BD0020F2BDFEB5D9
:10207000040080273F02822676006068B0420AD1C1
:10208000A068B84202D07B09984204D12068036856
:102090004025AB43036001920291202501980090F6
:1020A000029B002280212000FFF742FF002813D16D
:1020B0006068B04215D1A068B84202D06901884278
:1020C0000FD101980090029B0022C021C90020007E
:1020D000FFF77BFF002804D0206E05432566032010
:1020E000FEBD0020FEBDF8B504000F00160020253F
:1020F00000963B000022C0214901FFF766FF00283F
:1021000012D100963B00002280212000FFF710FF33
:10211000002809D100963B000022C021C900200000
:10212000FFF753FF002803D0206E054325660320E8
:10213000F2BD0000FFDFFFFF80B5214821490160AB
:1021400082214900416000218160E022D200C2600A
:10215000016141618022920082612822C261016294
:10216000416281620722C262016308214163FFF775
:10217000A3FB002803D0472114A000F0EDF801BD17
:1021800000681049884200D0704780B586B0880C3E
:102190000D490A6802430A600968084000900098E7
:1021A000E02001900220029000200390032104917E
:1021B000059001A99020C00500F0ECF807B000BD23
:1021C000EC0300200030014018100240433A5C55F7
:1021D000736572735C77616E6779756E7875616E21
:1021E0005C4465736B746F705C526F626F636F6E8B
:1021F0005C70726F6772616D5C776972656C657334
:10220000735C776972656C6573735C5372635C733E
:1022100070692E630000000001480068704700BF2D
:102220008804002038B500F09FF900F025F800F090
:10223000ABF900F0F5F900F085FAFFF77DFF00F04B
:10224000CBFAFF2446343349200000F00BFB32491F
:10225000601E00F007FB314D280000F095FB00BF29
:102260003EA000F022FA05223FA1200000F0E2FA91
:10227000280000F045FCFBE770B598B001240B94F2
:102280000C94022614962004159000011690002547
:1022900017950BA800F012FD002800D0FEE70720DC
:1022A00000900196029503950121684600F02CFFED
:1022B000002800D0FEE70494069504A801F032F847
:1022C000002800D0FEE700F0F7FFFA218900FFF7B1
:1022D000C5FA01F0EFF8042001F000F90022002116
:1022E0000020C04301F0D9F818B070BDE0B500215E
:1022F0006A4643181B7D5354491C0829F9DB69467B
:102300001BA000F0D2F907BD05480168491C016017
:1023100070470000ED22000825230008500400202B
:1023200080040020E0B50022694683181B7D8B5491
:10233000521C052AF9DD0879C0014A79831888788A
:10234000C001CA7882180878C0014978411800BFD6
:102350000BA000F0AAF907BDFEE7000062656769FF
:102360006E2E2E2E0D0A000068656C6C6F0000004A
:1023700063616E726376203D2025730D0A000000B4
:1023800063616E726376203D2025642025642025DC
:10239000640D0A00F0B585B00A0000230F210491F6
:1023A000010031E0052403E067488142FAD10424AA
:1023B000AC4034430298046064480568019EF443CD
:1023C00025405668F60302D52E00019D3543056071
:1023D000456825405668B60302D52E00019D354359
:1023E0004560856825405668F60202D52E00019D9D
:1023F00035438560C5682C405568AD0202D525007F
:10240000019C2C43C4605B1C10680400DC4000D1BC
:1024100086E0012401259D40039505400195019822
:102420000028F0D068469D0045705068022801D011
:10243000122811D1D80880000D18286A6E467778C6
:102440001C263E40049FB740B8431769BC4637007E
:102450006646BE4006432E620D6868465E00067002
:1024600003206E4637780326BE40F74302973E4668
:102470002E40556805406F463F78BD4035430D609E
:102480005568012D05D0022D03D0112D01D0122D3C
:1024900011D18E68029D3540D6686F463F78BE40A8
:1024A0002E438E604D68039EB5435668360926401C
:1024B0009E402E434E60CE68029D354096686F4622
:1024C0003F78BE402E43CE605568ED009BD5204D31
:1024D0002E6826432E602D6825400295029D1D4DD5
:1024E0009E08B600AD1902952E686D466F780C25D2
:1024F0003D40049FAF40BE439027FF05B94201D144
:10250000002455E7144FB942FBD0144CA14201D12D
:1025100002244DE7124CA14200D045E7032447E7CF
:1025200005B0F0BD81B0002A01D0816100E0816278
:1025300001B070470B4A1368034000D1704780B563
:10254000106000F06BF801BD00100048000401406D
:10255000181002400800014000040048000800482C
:10256000000C00481404014080B5064801681022A0
:102570000A430260002000F0C9FF00F0D9FF0020EC
:1025800002BD00000020024038B586B08021C9039A
:102590001F4802680A4302600268114000910099D6
:1025A0008021890202680A4302600268114000919A
:1025B00000998021C90202680A4302600068014054
:1025C000009100989024E405002218212000FFF7D4
:1025D000A9FF182001900120029000250395049581
:1025E00001A92000FFF7D6FE8020000101900948D4
:1025F0000290039501A90848FFF7CCFE00220021B4
:10260000072000F04AFF072000F04BFF07B030BD65
:102610001410024000001110000400487047FEE74B
:1026200080B5324832490160E12149024160002110
:102630008160C16001610C2242618161C1610162FE
:10264000416200F09DFF002803D04A212AA0FFF735
:1026500083FE01BD00682649884200D0704780B5DE
:1026600086B08020C00123490A6802430A600968D5
:10267000084000900098C020C00001900220029005
:1026800000200390032004900120059001A99020D0
:10269000C005FFF77FFE002200211B2000F0FDFE99
:1026A0001B2000F0FEFE07B000BD0EB418B50200FE
:1026B00003AB0E4C65212000743001F005FBFA23BA
:1026C0009B0082B221007431200000F08DFF01B028
:1026D000019810BC04B0004780B5044801220100F5
:1026E000703100F0E1FF01BD000000006402002035
:1026F0000038014018100240433A5C55736572730C
:102700005C77616E6779756E7875616E5C44657330
:102710006B746F705C526F626F636F6E5C70726F20
:102720006772616D5C776972656C6573735C7769FC
:1027300072656C6573735C5372635C7573617274FC
:102740002E63000080B5714871490160032141602A
:1027500000218160C160802212030261A022D203A5
:1027600042618161C161016241628162C16201F0C5
:10277000CBFA002803D04C216AA0FFF7EDFD01BD84
:1027800000686349884200D0704780B586B08020D9
:10279000800460490A6802430A60096808400090A2
:1027A0000098C02040010190022002900020039078
:1027B000032004900420059001A99020C005FFF794
:1027C000E9FD002200211E2000F067FE1E2000F01F
:1027D00068FE07B000BD000010B54C4C20006C3006
:1027E000206320008830606300F010F80021200092
:1027F00001F091FC002804D0206841690A220A43B4
:10280000426100BF5AA0FFF750FF10BD80B53F489E
:1028100000218165C1650122026641648164C16451
:102820000165416542660E2181660100443101F077
:1028300008FB01BD10B51300344A146B2060002062
:10284000E060A06023610B5C146B24182375401CAE
:102850000828F8DB6421100001F062FB401E804173
:10286000C00F10BDF8B504000D0000BF2DA72A4809
:10287000844206D3CC22390041A001F04DFE00BFB6
:1028800000BF264E3068322807DBCD22390000BF5A
:102890003BA001F041FE00BF00BF30682049C200EC
:1028A00089180D604C60401C30600020F2BD38B5C6
:1028B000020008000021194B1B6800E0491C9942E6
:1028C00009DA174CCD0064196568AA42F6D121686F
:1028D0008847012032BD002032BD10B50400616B75
:1028E0000868FFF7E4FF05E010B504000020074981
:1028F000096848600021200001F00DFC002804D088
:10290000206841690A220A43426110BD4003002049
:10291000006400401C100240010800007C040020FC
:10292000D4000020433A5C55736572735C77616E26
:102930006779756E7875616E5C4465736B746F70E2
:102940005C526F626F636F6E5C70726F6772616D05
:102950005C776972656C6573735C776972656C65C9
:1029600073735C5372635C63616E2E6300000000DE
:1029700063616E207265616479212121000000008D
:10298000746573740000000038B504005448606139
:102990005448E06054492160544D29001031E161F0
:1029A0002900303161622021218421855049A161B3
:1029B000504961605049A16020610222002120003D
:1029C00000F0E7F800220121200000F0E2F80022E8
:1029D0000421200000F0DDF800220521200000F095
:1029E000D8F8228DD2B21121200000F0D2F8262290
:1029F0000621200000F0CDF801220221200000F085
:102A0000C8F803220021200000F0C3F805232A00A3
:102A100008321021200000F0E3F805232A000A21E3
:102A2000200000F0DDF800210120626990470022BB
:102A3000E221200000F0ADF831BD80B503000A00AE
:102A40009020C005190001D1102102E0012B02D114
:102A50000821FFF767FD01BD80B50A0032230100A0
:102A60002648FEF787FF01BD80B50A00322301002A
:102A70002248FFF755F801BD80B5130032220092BD
:102A80000A0001001D48FFF713F901BD7CB56A4635
:102A90000023002418C200226B460578522D0BD16A
:102AA0000021421852785A54491C0629F9DB0622A3
:102AB0006946A22040000DE00025891E8D4206DAFD
:102AC000465D002E03D05E55521C6D1CF6E769462C
:102AD000FF204630FFF7AEFE7448046073BD00006F
:102AE0003B2A000849470008792A00080000002016
:102AF0008D2A0008592A0008692A0008EC030020E2
:102B000010B588B00400FF22E22100F042F8012154
:102B100001206269904703220021200000F039F86B
:102B20000120E16888470721200000F0A4F8402830
:102B30002DDBFF220721200000F02BF800210020D0
:102B4000626990470120E168884761206946087002
:102B50000122684623689847FF222021684601F039
:102B6000EDFC228D616A68462368984700210120A8
:102B7000626990470121002062699047218D606A57
:102B8000A26990470022E221200000F002F808B07C
:102B900010BDF8B50E0004000D0017000021002044
:102BA0006269904728002030694608700121684614
:102BB000626890476846077001216268904701216A
:102BC000002062699047072E07D0E22E05D0290029
:102BD000200000F050F8B842E0D1F1BD0000000044
:102BE000FCB587B004000E0017000B2B41DA002162
:102BF0000020626990473000203069460870012249
:102C0000491C68462368984708A805782A0001A946
:102C1000380023689847012100206269904704A981
:102C200023A00CC80CC102680A6000210020626960
:102C3000904768460674012200A9891C04A82368ED
:102C40009847FF20694608742A0001A904A8236850
:102C500098470121002062699047002008A909785F
:102C600001AA04E0135C3D5CAB42C0D1401C884229
:102C7000F8DB09B0F0BD1CB5040068460170002106
:102C80000020626990470121684662689047FF20F2
:102C900069460870012100A8401CA26890470121E4
:102CA0000020626990476846407816BD8404002081
:102CB000FF0000000000000000000000F1B582B03D
:102CC000914C0078C00700D435E10C218025AD027D
:102CD0006068084004280AD0680862681140082922
:102CE0000ED16168C02252020A40824208D1206897
:102CF000054034D002984068002822D10120FEBD52
:102D000002994A68012A09D08049814B002A09D0DA
:102D1000052A07D1216882000A43226021680843FE
:102D2000206005E0206803402360206801402160A6
:102D30000298406800280DD0FFF76EFA0600206860
:102D4000284000D0F7E0FFF767FA801B6528F6D32C
:102D50000320FEBDFFF760FA06002068284000D17E
:102D6000E9E0FFF759FA801B6528F6D3F0E7FFF793
:102D700053FA801B022800D813E1E9E70298C068E3
:102D8000002820680FD0012101432160FFF744FA99
:102D900006002068800700D5EBE0FFF73DFA801BB6
:102DA0000228F6D9D4E7012188432060FFF734FADE
:102DB000022706002068384000D1E1E0FFF72CFA36
:102DC000801B0228F6D9C3E7012188436062FFF720
:102DD00023FA02270600606A384000D1E5E0FFF7D9
:102DE0001BFA801B0228F6D9B2E70420C043012257
:102DF000D24300290AD0052908D1206A04210143C1
:102E00002162206A01210143216205E0216A0A4012
:102E10002262216A084020620298806800280FD050
:102E2000FFF7FAF9B74900910600206A800700D53C
:102E3000EAE0FFF7F1F9801B00998842F5D387E7B4
:102E4000FFF7EAF9AF4900910600206A800700D435
:102E5000DAE0FFF7E1F9801B00998842F5D377E7C4
:102E6000FFF7DAF9801B022800D8E9E070E7FFF7E6
:102E7000D3F9801B022800D81AE169E70421C9436D
:102E80008842606B02D101406163DDE004210143AF
:102E90006163606B012188436063FFF7BDF902271E
:102EA0000600606B384000D1D5E0FFF7B5F9801B14
:102EB0000228F6D94CE70298006A002811D0802732
:102EC0007F02606B38436063FFF7A6F90600606B12
:102ED000384000D0D9E0FFF79FF9801B0228F6D9CF
:102EE00036E7606B0A4901406163FFF795F9802777
:102EF0007F020600606B384000D1C6E0FFF78CF916
:102F0000801B0228F6D923E700100240FFFFFBFFD9
:102F1000FFFFFEFF01402160FFF77EF98027BF041D
:102F200006002068384000D1EAE0FFF775F9801B01
:102F30000228F6D90CE70C25022002990968014005
:102F40001ED0F827FF43616829400AD061682940F4
:102F5000082904D161686A030A4081038A4200D0CB
:102F60000CE72168084004D00298C068012800D00E
:102F7000C4E62068074002980069C000384320601A
:102F800002980078000710D50298C0690028606A8E
:102F900000D119E7012101436162FFF73DF90227E2
:102FA0000600606A384000D1E1E6029800784007E8
:102FB00030D5002780204005E169014007D1E16953
:102FC0000143E161E1690840009000980127A448AD
:102FD0000068C00511D4A2480168820D0A4302604E
:102FE000FFF71AF906009E480068C00505D4FFF7F0
:102FF00013F9801B6528F6D3AAE602988168012997
:1030000000D0F2E6206AFEE6002F03D0E069954981
:103010000140E16102980078C0061CD50298406921
:10302000F827FF43012800D028E7606B0421014303
:103030006163606B012101436163FFF7EDF80600F6
:10304000606B800700D40BE7606B074002988069D3
:10305000C0003843606302980078800615D5606828
:1030600028400C2809D060682840082803D168034C
:1030700061680140814200D01DE7606BC00304D548
:103080000298006A012800D038E60298406A0028B9
:1030900036D061680D40082D00D12FE68D490228F9
:1030A000206800D036E701402160FFF7B5F8060040
:1030B0002068800100D5DAE6E06A0F218843029992
:1030C000096B0143E1626068834901400298C06A6C
:1030D00008430299896A014361602068802149049C
:1030E00001432160FFF798F806008025AD042068B1
:1030F000284005D1FFF790F8801B0228F7D927E672
:103100000020FEBD89130000F2B582B00127FF4305
:103110000124734909682140029A91420AD27049F8
:103120000A683A40029B13430B6009682140029AE7
:10313000914222D10090694D022000990968014016
:1031400006D06968F0229143009A92680A436A6047
:1031500000990968214066D000994968012902D187
:103160002868800308E0022902D12868800103E072
:10317000032903D1686BC00303D464E02A681040BC
:1031800061D068680322904301436960FFF744F807
:103190000600009840685349019101280CD16868E5
:1031A0000C21014004293ED0FFF736F8801B01991D
:1031B0008842F4D30320FEBD02280BD168680C219D
:1031C000014008292FD0FFF727F8801B019988427A
:1031D000F4D3EFE70191032837D168680C2101404F
:1031E0000C2920D0FFF718F8801B01998842F4D3EE
:1031F000E0E700980078400706D568683A49014042
:103200000098C0680843686000F02EF837496A6883
:103210001206120F895CC84035490860002000F092
:1032200075F90020FEBD2E480299026822409142A5
:10323000DFD201680F400299394301600068044001
:1032400002988442D5D00120FEBD68680C2101405F
:10325000E9D0FEF7E1FF801B01998842F5D3A9E789
:1032600000700040FFFFFFEFF0B522490B682248D5
:10327000224A0C241C40082C02D00C2C1AD0F0BD81
:103280000F2500BF1FA49E0C2E40A45D21A6896AB5
:103290000D40715DC0256D022E001E4080277F020B
:1032A000BE4203D02B40AB4200D11000FEF7D6FA4D
:1032B0006043F0BD1000F0BD0D48006870470C4839
:1032C00000680F490B4A12685205520F895CC840CA
:1032D00070470000FFFFFFFEFF7FC2FF00100240AB
:1032E0000020024089130000FFF8FFFF2C46000871
:1032F000500000200410024000127A00006CDC0232
:103300000448000802030405060708090A0B0C0D0F
:103310000E0F10100102030405060708090A0B0C22
:103320000D0E0F10FEB50700464C3868C00359D586
:1033300000200090802040052168014008D12168CC
:10334000014321602168084000900098012000900E
:103350003D4E3068C00517D43068A10D014331607F
:10336000FEF75AFF05003068C0050DD4FEF754FF84
:10337000401B6528F7D30320FEBDFEF74DFF401B21
:10338000019988421FD3F6E7C020800061680140A0
:103390002E4A1600002919D07A681040814215D0B3
:1033A000606830406168802252020A43626061684E
:1033B000274A0A4062606060C00707D5FEF72CFF0D
:1033C00024490191050060688007D6D560680640F1
:1033D0007868304360600098002803D020681E4958
:1033E000014021603878C00705D560690321884312
:1033F000B968014361613878800705D5606917496C
:103400000140F868084360613878800605D5606936
:10341000102188433969014361613868800305D50B
:10342000606980218843B96901436161386840055A
:1034300005D56069402188437969014361610020B5
:10344000FEBD00001C10024000700040FFFCFFFFAA
:10345000FFFFFEFF89130000FFFFFFEFFFFFFCFFF0
:1034600018B5C20018231340FF249C40E24389078B
:10347000090E9940030004D41E489B089B00C01805
:1034800006E01D4B0007000F083880088000181860
:1034900003681A401143016011BD80B5FFF7E0FFDA
:1034A00001BD010005D40121C006C00E81401348B2
:1034B0000160704710B5401E80214904884201D345
:1034C000012010BD0E4C606003210020C043FFF7B7
:1034D000C7FF0020A0600721216010BD0849042813
:1034E000086803D1042202430A6070470422904313
:1034F0000860704700E400E01CED00E000E100E03F
:1035000010E000E080B5FEF7FFFE01BD10B504003D
:10351000FFF7D2FEFA218900FEF7A0F9FFF7CAFFF4
:10352000002221000020C043FFF7B7FF002010BD9C
:1035300080B5012011490A6802430A600A681040F8
:1035400000900098802040054A6802434A6049681C
:10355000084000900098002200210420C043FFF79B
:103560009CFF002200210120C043FFF796FF0022AC
:1035700000210020C043FFF790FF01BD181002405A
:1035800038B5040014D0250068356878002803D1C8
:1035900028702000FFF75EF824206870206801681A
:1035A000012291430160200000F061F9012801D15E
:1035B000012032BD606A002802D0200000F0F8F936
:1035C00020684168374A0A404260206881682A22A0
:1035D00091438160FFE72068016801220A4302608D
:1035E000200000F049FA32BDFEB505002F0050372B
:1035F000787E202848D10E000BD0140009D0A8688E
:1036000080214901884206D12869002803D1F007AA
:1036100001D50120FEBD387E012835D0019301205F
:1036200038760020F86121207876FEF7F5FD3C80A1
:103630007C803400060005E02088C005C00D2968A4
:103640000885A41C7888002820D07888401E7880BF
:1036500001980090330000228021280000F04CFAED
:1036600000281DD1A86880214901884202D128691B
:103670000028E1D0207829680885641CE2E7202032
:10368000787600203876FEBD0220FEBD2800019924
:10369000330000910022402100F02EFA0028EED0E5
:1036A0000320FEBDFFB7FFFF70B5030058339C7CBD
:1036B000202C41D100290BD0140009D08568802628
:1036C0007601B54206D10469002C03D1CC0701D59F
:1036D000012070BD1C7C012C2ED001241C7441657E
:1036E0001A805A80FF21B54204D10269002A11D103
:1036F00012490FE07F22002D03D10569002D06D16C
:1037000008E021078D4206D10169002901D19A8084
:1037100001E03F2199800021596122229A74197495
:1037200001688A6814438C60006801689022520026
:103730000A430260002070BD022070BDFF0100003E
:1037400070B504002368D869196805072D0F07D1E3
:10375000820605D58A0603D5200000F078FA70BDF0
:103760009A68002D63D001252A4203D19026760065
:103770000E405CD0C60705D5CE0503D51D62E36EAD
:103780001D43E56604230225860706D5D60704D522
:1037900026683562E66E1E43E666460706D5D607FE
:1037A00004D526683362E36E1D43E56608250307EA
:1037B00008D58B0601D4D20704D522681562E26EC3
:1037C0002A43E266E26E002A50D0800604D58806BD
:1037D00002D5200000F03BFA4026E06E054003D100
:1037E0002068806830401CD0200000F0B9F92068C3
:1037F00081680E4011D08168402291438160606EE3
:1038000000280AD069494163606E00F0B5FE0028C7
:103810002CD0606E416B884770BD200000F0D0FE58
:1038200070BD200000F0CCFE0020E06670BDC50237
:103830000DD552020BD5802040031862200069305C
:10384000202101704170200000F0BCFE70BD020616
:1038500005D50A0603D5200000F0B8F970BD400672
:1038600004D5480602D5200000F0E4F970BDF8B593
:10387000040010220020002526683168994F0F406F
:10388000A168394327690F4361693943E7690F43E9
:103890003760776894493940E7680F437760B768C5
:1038A00092493940A7690F43216A3943B160904971
:1038B000904FBE4208D109688907890F22D002299A
:1038C00018D015D3032910E0A44FBE4214D10F68BD
:1038D000C0218902394015D01703B94208D05703D7
:1038E000B94207D0C027BF02B9420CD102220AE078
:1038F000042208E0082206E0A0498E4202D0A04936
:103900008E4200D1002280231B02E7699F4225D10D
:10391000002A06D0022A07D0042A09D0082A0DD08E
:1039200013E0FFF7CCFC05E061684808954A08E021
:10393000FFF79AFC616840004A0802E061684808A5
:103940005A008018FDF78AFF00E001258E490140EA
:103950000004400C4007400F084318E0002A06D03E
:10396000022A07D0042A0AD0082A13D01AE0FFF747
:10397000A6FC06E061684808844A80180DE0FFF75D
:1039800073FC61684A088018FDF768FF80B22168FF
:10399000C86008E061684808C018FDF75FFF80B2A2
:1039A000F06000E001252800F2BD0000B93B0008EE
:1039B0002421415CC90706D501684A68744B13404D
:1039C000826A1A434A602421415C890706D501684E
:1039D0004A68704B1340C26A1A434A602421415C12
:1039E000490706D501684A686B4B1340026B1A43BE
:1039F0004A602421415C090706D501684A68674B83
:103A00001340426B1A434A602421415CC90606D523
:103A100001688A68624B1340826B1A438A602421D2
:103A2000415C890606D501688A685E4B1340C26B0B
:103A30001A438A602421415C490611D501684A680D
:103A4000594B1340026C1A434A60026C80235B039B
:103A50009A4205D14A68554B1340426C1A434A605A
:103A60002421415C090606D501684A68504B134081
:103A7000806C184348607047F8B504000025683032
:103A80004560FEF7C9FB070020681A49884202D04A
:103A9000324988421DD1474E0068000709D500967B
:103AA0003B00002280218903200000F025F8002837
:103AB0000DD12068006840070BD500963B0000221E
:103AC0008021C903200000F017F8002801D003204E
:103AD000F2BD210068312020487088700D700020F0
:103AE000F2BD0000F369FFEFFFCFFFFFFFF4FFFF20
:103AF0003010024000380140FEB5089E00920024BC
:103B000005000F0001932868C0693840B84201D110
:103B1000012000E00020009988421DD10020C04310
:103B20008642F0D0002E05D0FEF776FB0199401AB0
:103B30008642E8D228680168614A0A400260286823
:103B40008168012291438160280068302021417002
:103B5000817004700320FEBD0020FEBD00440040C3
:103B600001680A68574B13400B6001688A6801239B
:103B70009A438A6020216A2281547047004800409D
:103B8000004C00400024F400F0FF000000127A0016
:103B9000FFFFFDFFFFFFFEFFFFFFFBFFFF7FFFFFBC
:103BA000FFEFFFFFFFDFFFFFFFFFEFFFFFFF9FFFC5
:103BB000FFFFF7FFFFFFFF0180B5406A01005231B0
:103BC00000220A810A8000F0FBFC01BD0100523195
:103BD000CA7D212A2CD15222825A002A0AD1016898
:103BE0000A6880239A430A600068016840220A43F9
:103BF00002601BE0826880235B019A420CD102695B
:103C0000002A09D1C26C1288D205D20D03681A8528
:103C1000C26C921CC26405E0C26C531CC36412786F
:103C200003681A855222805A401E0880002070477F
:103C30000220704780B501680A6840239A430A60F1
:103C400020216922815400F0BEFC002002BD38B55D
:103C500001005A314A8803680C7C222C2AD19B8CA3
:103C6000846880256D01AC4209D10469002C06D11D
:103C70001A40436D1A80426D921C426504E0446D07
:103C8000651C45651A4022705A22825A521E0A80CB
:103C900012040DD1026813680A4C1C4014600268BB
:103CA00093680124A343936020220A74FEF714FD55
:103CB000002032BD9869082101439961022032BD7C
:103CC0005FFEFFFFDFFEFFFF1CB584B000240394FE
:103CD000002902D10194029402E00190491E029150
:103CE000009405AB01A9074878441830FCF7E8F9BF
:103CF0000199002900D00C70002800D4039806B068
:103D000010BD00BF9B0A0000F8B5050000D183E09C
:103D100000243D20285C002804D13C216C5428005C
:103D2000FEF72EFD02203D2168542868016802221A
:103D30009143016028680127016839430160FEF75B
:103D40006BFA060028684168394067D1FEF764FACB
:103D5000801B0B28F6D300F043FA802291430160C8
:103D6000E86901282868016803D140220A430260FB
:103D700002E0402291430160286A01282868016816
:103D800003D120220A43026002E020229143016015
:103D9000686A01282868016803D110220A4302607A
:103DA00002E0102291430160A86A01282868016896
:103DB00003D108220A43026002E008229143016015
:103DC000E86A01282868016803D104220A430260D6
:103DD00002E0042291430160A868E9680143286970
:103DE0000843696901436868401E08432968C8613F
:103DF00028680168B9430160FEF70EFA06002868DA
:103E00004168394015D0FEF707FA801B0B28F6D31E
:103E1000A1E704203D2168540120F2BD41683940EA
:103E2000F7D0A9690129016897D180220A4302606D
:103E300096E740683840ECD12C643D202F54002098
:103E4000F2BDF8B5012501224B699A40036868026A
:103E50001C182668A64830404E6A36020643354391
:103E60002560D543E0692840E061C86900281CD17D
:103E7000E0682840E060902080001F184869C0007A
:103E80008446C86800044E68B6B2064360463E5099
:103E9000912080001F184869C0008446886800048B
:103EA0000E68B6B2064360463E50C86901281AD172
:103EB000E0681043E060902080001F184869C0004F
:103EC0008446086800044E68B6B2064360463E5019
:103ED0009120800018184B69DB008E683604CF688B
:103EE000BFB23743C75088690028606801D12840B5
:103EF00000E01043606008690028606902D1054055
:103F0000656101E010436061086A012802D1E0693F
:103F10000243E26120680121884320600020F2BD55
:103F2000F8B50400226880200005430895681D400C
:103F300006D19568054003D19568ED0000D4D0E026
:103F40003C25655D012D01D10220F2BD01253C26F5
:103F5000A5553D25655D222D04D0322D04D0622D5E
:103F600004D005E0422504E0522502E0722500E07D
:103F700012253D26A55595682B4001D0002605E069
:103F80009368184001D0012600E002263001C023CA
:103F90005B00D21812181368DD07ED0F1560226B55
:103FA0002368C0256D005B191B189568002D1D68DE
:103FB00004D117687F05D2683A4307E0AC465568DC
:103FC000EF0095683D43D2682A4365462A431A604C
:103FD0000D00216B0A7C1207120F0A612168C222B0
:103FE0005200891809180A680F239A430A60216849
:103FF000C2225200891809180A68236B1B691343EF
:104000000B60216BCA7D13068A7D12041A434B7D17
:104010001B021343097D194322681218C4235B0055
:10402000D150216BCA7E13068A7E12041A434B7E3E
:104030001B021343097E194322681218C6235B0032
:10404000D1502168C0225200891808180168012245
:104050000A430260FEF7E0F807002168002E18D13D
:1040600024488968014081421AD00020C04385421B
:10407000F3D0002D04D0FEF7CFF8C01B8542ECD260
:1040800003203D2160542068002E19D181688022D0
:104090001EE0012E0ED11848896801408142E4D10A
:1040A0003D20205C422816D0522816D0722816D007
:1040B00001202AE01148896801408142D5D1EFE70B
:1040C000012E816802D18022120201E080221204B6
:1040D0000A43826014E02220EBE73220E9E7622005
:1040E000E7E704203D2160540120F2BD00000000FC
:1040F000FFC0FFFF010000040001000800000110E4
:1041000000203C2160540320F2BD3D21605400207A
:104110003C216054F2BD78B53C22825C012A29D052
:1041200002003C320123137000230C000FD13D2408
:10413000045D222C1DD03D24045D422C19D03D2469
:10414000045D622C15D03D24045D722C11D0012930
:1041500012D13D24045D322C0BD03D24045D522C41
:1041600007D03D24045D622C03D03D24045D722CF5
:1041700002D11370022072BD0C000CD13D24045DED
:10418000122C04D0322C11D0522C11D001E0422438
:1041900011E022240FE03D24045D122C04D0222CD7
:1041A00004D0422C04D005E0522404E0622402E052
:1041B000722400E032243D25445503640468656997
:1041C0008F2636022E43666113700068002941690C
:1041D00001D10A2200E050220A434261002072BD50
:1041E00003203D2168543C202C540320F2BDF8B537
:1041F000040000252068C168C90606D54169090781
:1042000003D58025AD001021C16020680169C90671
:1042100008D54169490605D529008025ED000D43E3
:104220001021016120684169C90742D5644982684B
:104230000A408A4209D0B34982680A408A4204D0BF
:10424000B14982680A408A4233D18168890705D41E
:104250008168890502D48168890321D541690122D9
:10426000914341613D20205C122804D120684169BE
:10427000A64A0A4042613D20205C422807D05228CD
:1042800003D0722805D1622004E0322002E022200F
:1042900000E001203D216054200000F095F903E08A
:1042A000280080252D01054320688168984A0A432B
:1042B0008260206802264169314006D0C0688007CC
:1042C00003D00021200000F07DF820684169C90674
:1042D00006D50069800703D00121200000F072F8A4
:1042E000206C054325642068F201012183690B409D
:1042F00008D04369134005D043691B0402D5236CE1
:104300000B4323648369334008D043699B0505D57B
:1043100043691B0402D5236C1E4326640423CD038A
:1043200086691E4008D04669760505D546692E4047
:1043300002D0266C1E4326648669702737402DD034
:10434000466936052AD54669354027D085697026E5
:104350002E40102E0AD0202E0BD0302E0CD0402E06
:104360000DD0502E0ED0602E11D013E0226C0825F7
:104370000AE0226C102507E0226C202504E0226C64
:10438000402501E0226C80251543256402E0256C60
:104390002A43226482697025AA438261206C002826
:1043A0000DD020684268134343603D2021542068AB
:1043B0004169584A0A4042612000FEF795FAF1BD72
:1043C0000100000470B50A0001D1436B00E0836B6B
:1043D0000C010268D8256D005219125904252A4093
:1043E0009A600568D8267600AD192D19002A2A682A
:1043F00002D1520D1A6001E0D2085A60012205680C
:10440000AD192D596D081540DD6005682D19361D53
:10441000AD592D072D0F1D6105682D19AD592D04BE
:104420002D0EDD61196205682D19361DAD591D75FA
:1044300005682D19AD592D0A5D7505682D19AD5901
:104440002D0C9D7505682D19AD592D0EDD7505686E
:104450002D19361DAD591D7605682D19AD592D0A3A
:104460005D7605682D19AD592D0C9D7605682C19C2
:10447000A459240EDC76036820240D0006D1DD68E3
:104480002C43DC6003685C690A2505E01D692C4348
:104490001C6103685C695025AC435C613D23C35CCF
:1044A000222B03D03D23C35C322B04D103685C690B
:1044B000164D25405D6100290CD13D21415C42290A
:1044C00011D0622902D0722902D014E032210FE00B
:1044D00052210DE03D21415C522904D0622904D0D3
:1044E000722904D007E0122102E0222100E04221DB
:1044F0003D22815401E03D214254FEF7EEF90020B7
:1045000070BD00000001000800000110FF70FFFFF7
:1045100019050100A470FFFF00B583B0009101925E
:1045200002906A4604491820ABBE002801D1FDF76D
:10453000B0F903B000BD00BF101002001206130A4C
:104540001A43130C1A4300BF130030B414001500B3
:10455000103902D310393CC0FCD2490700D30CC03B
:1045600000D504C0890002D30280801C002900D538
:10457000027030BC7047000070B500220024012199
:104580002123C35C022B03D004228263012415E0A3
:1045900003681D680E26B5431D6003681D688D43C2
:1045A0001D60036C01259D40C36B5D602123C154D8
:1045B00020214254416B002900D08847200070BD63
:1045C0007047FEE7704770477047FEE71148016883
:1045D00001220A43026041680F4A0A4042600168B2
:1045E0000E4A0A40026001680D4A0A4002604168B2
:1045F0000C4A0A404260C16A0F229143C162016BBA
:10460000094A0A400263416B012291434163002140
:1046100081607047001002400CB8FF08FFFFF6FEF3
:10462000FFFFFBFFFFFFC0FF2CFEFCFF00000000B0
:104630000000000001020304060708097047FEE7B6
:104640007047704780B500F017F8FEF75BFF01BDBB
:1046500080B580200001FDF76DFF01BD80B50448E5
:10466000FFF76EF801BD80B50248FFF7C0FD01BD40
:10467000640200204003002002480168491C0160D8
:10468000704700BF8804002070B40123002413E0A9
:104690000168001D194202D04D466D1E49190C607B
:1046A000091D121F042AFAD20D00960701D50C80AD
:1046B000AD1C1A4000D02C700268001D002AE7D102
:1046C00070BC704730B501684118446862088A18A8
:1046D0008368E4070DD54C461B190AE00C7864B2D8
:1046E000491C0D78491C1D705B1C002C05D5641CF1
:1046F000F9D19142F2D10C3030BD641EF1D5F8E70A
:1047000010B5074979441831064C7C44163404E04E
:10471000081D0A68891888470100A142F8D110BD18
:10472000080000002400000061FFFFFFBC03000040
:10473000D4000020000000008DFFFFFFF600000005
:10474000DA0000000000002031B5FDF765FD04002F
:10475000009D0020C043854200D06D1CFDF75CFD2C
:10476000001BA842FAD331BD00F00DF8002801D09B
:10477000FFF7C6FF00BF00BF002000BF00BFFDF76E
:1047800051FD00F002F80120704780B500F002F8FA
:1047900001BDFEE707463846FDF784F8FBE782686F
:1047A000521C82604268002A06D00268531C0360D3
:1047B00011704168491E41607047FF2902D90020ED
:1047C000C04370470170012070470078401E80414F
:1047D000C043C00F7047FEE76E616E004E414E0051
:1047E000696E6600494E460001488047014800470F
:1047F000CD450008F947000800BF00BF00BF00BF5B
:10480000FFF7B2FF000000000102030400002E00C9
:104810004300FEE7FEE7FEE7FEE7FEE7FEE7FEE712
:10482000FEE7FEE7FEE7FEE7FEE7FEE7FEE7FEE760
:10483000FEE7012030FD40FD00042030404030FD07
:1048400000090102030405060708090AC9001E122F
:104850007A000C4800080C4800080C4800080C4876
:1048600000080C4800080C4800080C480008F8FF35
:104870000B0E4800080C4800080C480008FAFF0618
:1048800000001048000801FD000354000020D8007B
:0F48900003CB470008FC0004BB47000801F900F8
:04000005080047F9AF
:00000001FF
